:1000000000000420750300005D0300005F03000092
:1000100061030000630300006503000000000000AE
:100020000000000000000000000000006703000066
:1000300069030000000000006B0300006D03000076
:10004000194F00006F0300007D4F00006F03000098
:100050006F0300006F030000295E00006F030000C3
:100060004D7000006F0300006F0300006F0300007D
:100070006F0300006F0300006F0300006F030000B8
:100080006F030000C11B00006F0300006F0300003E
:100090006F0300006F0300006F0300006F03000098
:1000A0006F0300006F0300006F0300006F03000088
:1000B0006F0300006F03000000000000000000005C
:1000C0006F0300006F0300006F0300006F03000068
:1000D0006F0300006F0300006F0300006F03000058
:1000E0006F0300006F0300006F03000000000000BA
:1000F000000000006F030000000000006F0300001C
:1001000000000000000000000000000000000000EF
:1001100000000000000000000000000000000000DF
:1001200000000000000000000000000000000000CF
:1001300000000000000000000000000000000000BF
:1001400000000000000000000000000000000000AF
:10015000000000000000000000000000000000009F
:10016000000000000000000000000000000000008F
:10017000000000000000000000000000000000007F
:10018000000000000000000000000000000000006F
:10019000000000000000000000000000000000005F
:1001A000000000000000000000000000000000004F
:1001B000000000000000000000000000000000003F
:1001C000000000000000000000000000000000002F
:1001D000000000000000000000000000000000001F
:1001E000000000000000000000000000000000000F
:1001F00000000000000000000000000000000000FF
:10020000354936480A1A02D0072291438D463449AF
:1002100034480A1A06D00722914381F30988022242
:1002200082F3148830483149314A00F044F83148AB
:100230003149324A00F03FF831483249324A00F041
:100240003AF832483249334A00F035F832483349F7
:10025000334A00F030F833483349344A00F02BF881
:1002600033483449344A00F026F8344834490022EF
:1002700000F02CF833483449002200F027F83348C6
:100280003349091A082902DB002202604160314A21
:1002900090471F481F49884205D00268043003B4C4
:1002A000904703BCF7E700208646EC46002000217B
:1002B000294A9047FEE7884207D0521A05D00378B2
:1002C00001300B700131013AF9D17047884202D0F8
:1002D00002700130FAE770470000042000E00320BC
:1002E000000004200000042038A70000EC000020DB
:1002F000E0010020D0030000D0030000127B0000CA
:1003000038A70000EC000020EC000020CC7D0000AD
:10031000CC7D0000CC7D0000CC7D0000CC7D0000B9
:10032000CC7D0000CC7D0000CC7D000038A7000013
:100330002CA80000E0010020E0010020E0010020E6
:100340005410002054100020581000205810002095
:10035000583000209D03000095600000FEE7FEE796
:10036000FEE7FEE7FEE7FEE7FEE7FEE7FEE7FEE765
:1003700000F002B8FFF7FCBF0F484FF007018843B9
:1003800085460E4880470E48016841F470010160BF
:10039000BFF34F8FBFF36F8FFFF732BF09480A4992
:1003A0000A4A884207D0521A05D0037801300B70F0
:1003B0000131013AF9D170470000042019720000A0
:1003C00088ED00E0E07C000000000020EC00002050
:1003D000004870474C1000207047000007B5044BE0
:1003E0000093044A402300F030F803B05DF804FBAA
:1003F000F9030000E10100202DE9F8438946144685
:10040000B2B10F4B0F4E0325002743F001082246DF
:1004100009EB0701002006F0BBFE0744241A48B987
:1004200033782BB14FF47A40C047013D02D135708B
:10043000BDE8F88301233370002CE8D1F8E700BF52
:10044000D07D0000E00100207047F0B595B01C465B
:10045000164608460D4604F036F81A9B0D93CDE972
:10046000086400242346082205A928460A948DF82A
:100470002C400C9404F044F8079B0293069B0393D2
:100480009DF814308DF8114003F00302012A1DD1AC
:10049000BDF81440059EC3F3C203C4F383148DF862
:1004A0001030A20008230EA9284604F029F8C6F34C
:1004B000952608AB0093224602AB0EA9304600F009
:1004C00005FF284604F003F815B0F0BD022AF8D164
:1004D000BDF81640C3F3C203A4098DF810300827F5
:1004E000082C264628BF08263B4632460EA9284639
:1004F00004F006F8A41B08AB02AA31460EA8374444
:1005000000F048FF002CEBD1DBE70000014B01229B
:100510001A707047620200207047000070B50F4DDE
:1005200006460FCD88B06C460FC495E80F00002E2C
:1005300084E80F004FF00603094A0A48009308BFF9
:100540000022694604F07CFC18B1074A432100F000
:10055000A7FF064B1E7008B070BD00BFE47D000011
:100560000D050000EC000020107E0000210200209C
:1005700007B5044B0093044A4023FFF766FF03B01E
:100580005DF804FB8D0500002202002038B50E4BFB
:100590000E4D002018700E4804782D5DD2B21C4616
:1005A00075B1043005F018FA18B10A4A532100F069
:1005B00077FF094B1A7812B12378002BFBD038BD96
:1005C0000C3004F031FFEFE762020020F808002051
:1005D000EC000020107E00002102002008B5084831
:1005E000084A0378D35C3BB1043005F08DF9002054
:1005F000BDE80840FFF792BF0C3004F0BFFEF6E7FD
:10060000EC000020F808002000230428CB604B6099
:1006100098BF044B044A98BF53F820308A600B609F
:10062000704700BF4C80000028800000CB6800228B
:100630005A717047C368DB6800225A717047CB68F3
:1006400001225A717047C368DB6801225A717047F2
:100650000D4A8A6070B50D4A0D4C0023121BCB6009
:100660004B600B6012091D469A4207D0E668367946
:10067000FF2E05D0854202D1A3680B6070BD013505
:1006800001331034F0E700BF60800000A87C000058
:10069000787C00002DE9F74F164D174C52F8047C7A
:1006A0000193641B06468946924624094FF00008D0
:1006B000444508D1114A3B460221304603B0BDE80B
:1006C000F04F02F031B8A968384607F0CBF9AB46D5
:1006D000103510B108F10108EAE7DDED017A17EEF7
:1006E00090CA53464A465946304603B0BDE8F04FDB
:1006F000604700BF787C0000A87C00009881000063
:10070000014BFFF7C7BF00BF1D0D0000014BFFF7F6
:10071000C1BF00BF2D060000014BFFF7BBBF00BFEC
:100720003F060000014BFFF7B5BF00BF550B0000AF
:10073000037813F0040216D003F00303012B03D057
:10074000022B09D0012070470A6800880232C0F3EA
:10075000831002440A60F5E70B684288023303EB1A
:1007600092130B60EEE71046704700002DE9F04F42
:10077000044685B0851C00200F46904601F0DCF849
:10078000454806683E60D0E90132134401339B1BA3
:10079000824600F21C4600F5836900F21447AB4222
:1007A0001AD30022B8F1000F6FD0052363F30702BC
:1007B00064F38912DAF80010DAF808300B400333DA
:1007C0000D444AF823200020CAF8005001F0B6F882
:1007D000012005B0BDE8F08F0121304601F0B8FAE4
:1007E000484601F0CEFA384601F0CBFADAF80400B8
:1007F000DAF808B0009000EA0B0003300AEB800042
:100800006946FFF795FF009B50BB0BEA03020AEB1A
:10081000820203F1020CD2680192013303EA0B0B4E
:100820000AEB8B0B02F00302012ACDF800C0DBF8C3
:100830000C1022D0022A16D08346384601F0A4FAC2
:1008400010B1009BCAF804305946304601F080FAD6
:10085000DAE901231344DAF8002001339B1A9EE7FA
:100860000BEA0300C9E7BDF806309B0903334FEAE2
:10087000114B0CEB93030093DFE7BDF80430C3F397
:1008800083134FEA114B6344F5E7062363F3070232
:1008900064F39F528EE700BF34030020012907B59F
:1008A000034604D08168D1F86411890707D5002276
:1008B0001146184603B05DF804EB02F087BF536899
:1008C0000193054B00931368044A022101F02CFFA9
:1008D00003B05DF804FB00BF797E00006F7E00006E
:1008E0002DE9F3478368D3F86441C4F34004074615
:1008F00034B10022114602B0BDE8F04702F066BFF5
:10090000144E154DDFF85880DFF85890DFF858A0E6
:10091000AD1B2D09AC4202D102B0BDE8F087F268F0
:10092000B3681179FF2907D10C4A0821384601F034
:10093000FBFE01341036EDE75279002A14BF42461F
:100940004A46CDE9002138465246082101F0ECFE26
:10095000EFE700BF787C0000A87C00009F7E0000CD
:100960008E7E0000967E0000BE7E000030B50A4BF1
:100970000A4A0B49D21AD20800239A4201D1052013
:1009800006E031F823500468A54202D1036000203C
:1009900030BD0133F1E700BFE87B0000787C000048
:1009A0005C0000208368D3F864319B0703D50022E4
:1009B000114602F00BBF024A022101F0B5BE00BF92
:1009C000DF7E00008368D3F864319B0703D50022E3
:1009D000114602F0FBBE024A022101F0A5BE00BF93
:1009E000DF7E00002DE9F84F224B2348FF229A605A
:1009F0000022C3F81824C3E90022C3F8142483F8A2
:100A0000202403F019FD814688B91C481C4E1D4C5A
:100A1000DFF87CA003F0A7FEA41BE4084D46A54226
:100A200008D10023184A19481946A3421BD1484649
:100A3000BDE8F88F4FF00008474606EBC50BBD42F6
:100A40000AD0142256F83710DBF8000006F007FF32
:100A50000028C8BF08F101080137BC42EFD12AF8CD
:100A600025800135DBE720F8231042F8041B013311
:100A7000DBE700BF34030020A87C00001C800000DE
:100A8000E87B0000787C0000A40000205E000020CD
:100A90005C00002007B5019031B9019A064B53F86C
:100AA000320003B05DF804FB01A8FFF75FFF0028E8
:100AB000F3D00020F5E700BFE87B0000002310B56D
:100AC000CB604B60034B8B600C460121FFF7E2FFCC
:100AD000206010BD28800000094B013903EBC000E5
:100AE000032909D8DFE801F00A0204060420704750
:100AF00000797047407970470020704702207047A6
:100B0000E87B000030B5114C00EB400054F8215058
:100B10008240072383406A401A400D4B6A40C2F36B
:100B2000821044F8212003EB8101C2F3C203834207
:100B300038BF0346C2F34220834202F0070238BFA7
:100B400003469A4238BF1A464A8030BDA4000020AE
:100B50005C0000202DE9F74F06461D469046002A0E
:100B60004FD0CB6828684B4993F80490072206F0D1
:100B700076FED0B9B8F1010F07D1474A02213046BD
:100B800003B0BDE8F04F01F0CFBD444F04460A2248
:100B900057F8041B686806F062FE002873D0013421
:100BA000052CF4D16B683E4A13E008223D492868C1
:100BB00006F055FE58B9B8F1010F04462AD00127B6
:100BC000394A3A4B9B1A4FEAD30A934645E02B68C1
:100BD000374A0221304603B0BDE8F04F01F0A4BD12
:100BE00018F83530A3420FD200212846FFF752FFF4
:100BF000524603460221304601F096FD0135BD42C2
:100C0000EED103B0BDE8F08F224629464846FFF7F3
:100C100079FFF3E7244B254FDFF89CA0FF1AFF086C
:100C2000002503F10608EAE7184600210193FFF7C3
:100C300031FF0099202206F012FE019B014608B107
:100C4000013310E00BEBC3029279A24215D3224686
:100C500019464846FFF756FF01374745D1D255F8A8
:100C60002730009300239A45DED155F82730114AEA
:100C70000221304601F058FDEEE71846FFF70AFF63
:100C80000D4A0346F4E7B8F1020FE4B2C2D00227DE
:100C900096E700BFF07E0000F77E0000388000007D
:100CA000627F00000E7F0000E87B0000787C00007F
:100CB000167F00004E7F00002B7F000013460A467F
:100CC000C168FFF747BF000013B504460191A3B107
:100CD00062B9019A0F4B04EB4404072053F8223009
:100CE000A0401840E040C0B202B010BD01A8FFF71C
:100CF0003DFE0028EDD00020F6E72AB9019A064B08
:100D000003EBC2039879EFE701A8FFF72FFE002855
:100D1000F1D1F3E7A4000020E87B0000284B294A2A
:100D20002DE9F04F9B1A4FEAD309CB685B7985B068
:100D300005460E461BB9244A022101F0F5FC234B5F
:100D4000234A244F0821284601F0EEFC224A0821BC
:100D5000284601F0E9FC00244C4502D105B0BDE86D
:100D6000F08FF36893F8048001231A462146404629
:100D7000FFF7AAFF01222146834600234046FFF7E2
:100D8000A3FF0328034628BF03235FFA83FA8046A4
:100D900001212046FFF77EFE57F82A3001930F4AC3
:100DA0000F4B57F82B100091D04598BF1346029374
:100DB0000C4A03460821284601F0B6FC0134CBE773
:100DC000787C0000E87B0000817F0000947F0000B9
:100DD000A07F000038800000BE7F00002A8A00004B
:100DE0007F7F0000FB7F000013460A46C168FFF7C3
:100DF00095BF0000034BD3E90030C31A5842584155
:100E0000704700BF340300202DE9F04F85B0FFF795
:100E1000F1FF0646002840F016818C4DC5F81804F5
:100E2000BFF34F8F6868AC6800902040033005EB3B
:100E300080006946FFF77CFC009B18B1D5F81824A8
:100E4000002A66D004EA0302991C013305EB8202F2
:100E5000234005EB8303D268DB68029302F00303AF
:100E6000022B0192009169D1BDF8063078489DF8B7
:100E700004604FEA931ABAF1500FD14628BF4FF0E1
:100E8000500969F38F1309F10801ADF8063003F03A
:100E9000EBFAC6F3C2068046002800F0BB8003F0E0
:100EA00012FB01A900230822404603F01FFB009912
:100EB00024EA01070137BF00B94538D95FFA89F93B
:100EC00097B3FFB2A9EB0709214003315FFA89FB11
:100ED000B946604F05EB810108234A46404603F0BE
:100EE00005FB37B109F108035A463946404603F07D
:100EF000FDFA009B0AF1030A03EB9A030093D5F86D
:100F00001834002B50D1D5F81044DFF85C91072736
:100F10006FE02A689A4204D86A60304605B0BDE89E
:100F2000F08F04EA030081E74A49BB46D4E7214039
:100F3000033108234A4605EB8101D7E7012B69D12C
:100F4000BDF804604248C6F38311062928BF062174
:100F500061F3891602318900ADF8046003F084FA68
:100F6000C6F3C2068046002854D003F0ACFA002332
:100F7000082201A9404603F0B9FA0027BDF8042071
:100F8000C2F38312BB00974203F10803B7D2009962
:100F90004A1C21400331009205EB810104224046A6
:100FA00003F0A4FA0137E9E7404603F090FAFFF7AF
:100FB00021FF80F00100C6B2AFE7E3685A79B2B111
:100FC0001B79BDF8081003EB430259F8211007FA0A
:100FD00002F3052E03EA010323FA02F308BF0326F6
:100FE000B34204D3236841461B6820469847E36810
:100FF0001C68002CE1D1404603F069FA204600F05D
:101000009BFCD5F818340BB9009B6B60002000F0F6
:1010100095FCCCE7D5F8104474B90F4B5B88012BD5
:10102000C5D90E4B0E480F49C01AC008000440F045
:10103000020000F073F8BAE7236820469B689847DF
:10104000E3681C68E8E7002667E700BF3403002078
:10105000A87C00004003002070000020E87B000016
:10106000107C0000C0810000A40000202DE9F74F93
:10107000284C80460F46924601A9012218469B46FD
:10108000D4F80890FFF772FB80B3019D0026A91CDD
:101090005E4506EB010233D100211F4800F022FE1D
:1010A00080F310006A1C02EA090204EB82020004C9
:1010B00005EA0903033340EA1840D06014F82320FE
:1010C00068F3C50204F8232034F8232066F389125C
:1010D00024F8232054F8232067F39F2244F8232088
:1010E00002F0F80242F0010204F8232094F82034C0
:1010F0001BB1FFF789FE0028FBD103B0BDE8F08FDC
:1011000009EA020204EB82025AF82630D360013663
:10111000BEE700BF340300205007002000231A461A
:10112000FFF7A4BF07B50123019201AAFFF79EFFB5
:1011300003B05DF804FB07B5CDE9002302236A463E
:10114000FFF794FF03B05DF804FB7FB5CDE9012301
:10115000089B0393099B04930A9B059301AA05230B
:10116000FFF784FF07B05DF804FB00001C4A2DE97F
:10117000F843D2F81034074688460024194689B946
:10118000F9680C71A3B9C2F810740B60154B164DB9
:10119000ED1AED08002603F10709AE420DD12046F5
:1011A000BDE8F883C9680879A04212D00968E6E76B
:1011B000DB681A680A601F60E8E719F83620FB68E8
:1011C0004245314628BF42461879FFF79BFC01365D
:1011D000E3E701340A2CD1D14FF0FF34DFE700BF41
:1011E00034030020E87B0000787C0000094A38B511
:1011F0000123D2F8104482F820341D4604B938BDCA
:10120000E3685D71236820465B689847E3681C6863
:10121000F4E700BF34030020037A052B10B50C4619
:101220000FD0437A23B1084A0849204602F00BFF49
:101230000749204602F007FF2046BDE8104002F0B3
:10124000F7BE002AF8D0F3E74B840000138A0000B1
:1012500062860000C38873B504460D4633B1144A54
:1012600000921449144A284602F0EDFE217A05291D
:101270001CD0637A4BB1A088FFF72EFC0F4B1049AE
:1012800053F82020284602F0DEFE227A0D4BA0887B
:1012900053F822600021FFF7FDFB0B49034632465D
:1012A000284602B0BDE8704002F0CDBE02B070BD6D
:1012B0004B84000058840000508400001884000013
:1012C000138A00007C840000708400002DE9F04344
:1012D00085B01F460C9D002306460C46904695F8A7
:1012E0000C902B7329463846FFF7B4FFB8F1060F70
:1012F00009D8DFE808F00412181F283340003146EF
:10130000284602F0A0FE002229463846FFF784FF57
:1013100085F80C9005B0BDE8F08322683146284678
:1013200002F091FEEFE7D4E900233146284602F0AF
:101330008AFEE8E7A36800933146D4E900232846F3
:1013400002F081FEDFE7E3680193A3680093314672
:10135000D4E90023284602F076FED4E723690293FD
:10136000E3680193A36800933146D4E9002328463B
:1013700002F069FEC7E76369039323690293E36898
:101380000193A36800933146D4E90023284602F074
:101390005AFEB8E708292DE9F84F80460E46174651
:1013A0001C463AD8002593F80C901D731946104638
:1013B000FFF750FFDFF884A0DFF884B0AE422ED9EB
:1013C00018F805205946204602F03DFE0135082D4B
:1013D000F4D11849DFF86CB0204602F034FE4FF02B
:1013E000000A564520D918F80A507E2D03D8284601
:1013F00006F078F800B92E252A465946204602F014
:1014000022FE0AF1010ABAF1080FEAD101222146AF
:101410003846FFF701FF84F80C90BDE8F88F51467D
:10142000204602F010FED1E70349204602F00BFEF1
:10143000E7E700BF468400004484000042840000C7
:101440003C8400004884000082B001238DF80730FE
:101450009DF80730114B1860596044F20101884231
:101460009A6012D044F20201884206D1DA60DA684A
:1014700012889A61DA685268DA6172B69DF80730AC
:10148000002BFBD162B602B070471A611A699268EC
:101490005A611A6912689A611A69ECE7F00700202C
:1014A00000B583B002900091019244F201007146B0
:1014B0006A4600F003F803B000BD00002DE9F043D8
:1014C000064685B00F46154672B6FFF78FFEFFF74A
:1014D0009BFC0028FBD1DFF8C88044F20102964251
:1014E000B8F802301DD044F2020296423BD15BB103
:1014F000244B25486A682549C01AC00800042B8877
:1015000040F00100FFF717FE214B1B68DB0700D5F9
:1015100000BE2A463946304605B0BDE8F043FFF725
:1015200093BF002BF0D0174BD5F80890164C4846C7
:10153000E41AE40803F07EFA2B680297019324046E
:101540006B68009344F0010403464A461149204663
:10155000FFF7FBFDB8F80230002BD5D00E4920462E
:10156000FFF7DCFDD0E7002BCED0064B06480B4939
:10157000C01AC00800043A4640F00100FFF7D2FD4F
:10158000C2E700BFE87B0000107C0000C8840000B8
:10159000F0ED00E0E2840000088500001C850000FA
:1015A00070000020D0E90223D1E90201994208BF6E
:1015B00090422CBF01200020704700002DE9004818
:1015C0000C4800F0E8FA0C4BD3E9002312EB000BB7
:1015D00043F1000C094BD3E900239C4508BF934518
:1015E0005846614603D21BF180704CF10001BDE802
:1015F000008800BF24010020180800208008002077
:1016000037B505460C460A4801A900F0F6FA60B164
:101610000570446001A9064800F019FB18B105489F
:1016200000F0BEFA002003B030BD0420FBE700BF8D
:1016300010010020240100201B4B1B782DE93048AD
:1016400004461BB900252846BDE830880028F9D09B
:1016500090F8203003F0FF05002BF3D0FFF7AEFF2A
:10166000D4E90223994208BF904217D323690BB9EA
:1016700084F82030D4E90530984721690029E1D069
:1016800094F8203003F0FF05002BDBD0D4E90223CF
:1016900012EB010B43F1000CC4E902BC21460348E4
:1016A00003F084F9CFE700BF200800203885000050
:1016B00013B5114B1149186801900823582210489E
:1016C00000F088FA044698B90E4A0F4801A900F0C4
:1016D00045F9044660B901210B4800F03FFA0123A7
:1016E0000A4A0948194600F0A5F9094B01221A7067
:1016F000204602B010BD00BF348500002408002041
:10170000100100207917000024010020FFFF7F0056
:10171000200800203AB103685A614A1E51425141E3
:101720001961002070470720704738B590F82030C5
:1017300004460D4683B98261FFF740FF421941F12B
:101740000003C4E90223236903B125612146002077
:10175000BDE83840FFF754BF002038BD00230146E4
:1017600080F820300120FFF74BBF0000014800F057
:1017700012BA00BF240100202DE9F04F85B00746C2
:1017800000F0F4F940B15B4AD2E9003113F1807303
:1017900041F10001C2E900310021384600F0F5F9BD
:1017A00038B1554C236823B12068FFF745FF00236B
:1017B00023600121384600F0E8F920B1FFF7FEFE72
:1017C0004E4BC3E9000103A94D484B4D4D4C4E4EC5
:1017D00000F04DFA002846D1DFF828A1464CDFF88A
:1017E00030B1504603F0F8F82368002878D083B170
:1017F0002368D0E90201D3E90223994208BF90424D
:101800002ED2236893F820301BB12168504603F094
:10181000CDF8504603F0DAF8D0E9026305460193AB
:10182000FFF7CCFE019BB6EB000863EB0109B8F1B2
:10183000010F79F1000346DB344EB04541D9FFF783
:1018400095FF82194FF496030021584600F012F9D3
:10185000002840D1236813B9384600F0E3F825602A
:1018600005B0BDE8F08F0378012B1FD05BB1022BD0
:1018700013D14FF0000A204603F0A8F8002835D015
:1018800080F820A0F7E7416891F820302BB90123B8
:1018900081F82030204603F089F803A9184800F0A9
:1018A00011FA03A9164800F0E2F993E741682B68A2
:1018B000994202D100232B60EFE7204603F08FF816
:1018C000EBE7AA68BEE70021584600F054F9284625
:1018D000FFF7B2FE01E00D28F9D00023236080E776
:1018E000002BBDD1384600F0A1F8B9E701233370D1
:1018F000D3E700BF180800208808002080080020D7
:10190000100100203885000020080020FFFFB400EF
:101910002401002072B6024A136801331360704735
:101920008C080020034A1368013B136003B962B6B8
:10193000704700BF8C080020FFF7ECBFFFF7F2BF35
:10194000435882B03BB10023435043580193019B5D
:10195000012002B070471846FBE70000F8B5284B9D
:101960004679284C43F82620274BF5005F886319F9
:101970001B796BB1012F09D92448254B2549C01A81
:10198000C008000440F00200FFF7C8FB0820F8BDC3
:1019900003680A88C3F8082590F904308978002B79
:1019A000A8BF03F1604CDAB2BABF02F00F0EDFF845
:1019B0006CC00CF5614C4FEA4111C9B2B4BF0CF8D0
:1019C0000E108CF800135B09012102F01F02DFF8F2
:1019D00050C0254401FA02F2022F4CF8232029714D
:1019E00044F8360009D90948094B0B49C01AC00808
:1019F000000440F00300FFF791FB0020C7E700BFA1
:101A0000980800209008002078000020207C00002A
:101A1000E87B0000668500008885000014ED00E08A
:101A200000E100E0036801221A60704703680122A8
:101A30005A60704773B501F15005AD000068ADB252
:101A40004FF480348C400026C0F80843C0F8484367
:101A5000465101F5A8714559019522F07F42019D3B
:101A600040F82120C0F844430BB1C0F8044302B051
:101A700070BD00002DE9F74F884699464FF4803637
:101A8000036808F150058E404FEA880AAD00C3F89C
:101A90004863ADB2C3F80863074603EB0A00D3F806
:101AA00004154FF0000B22F07F44D0F84025C0F819
:101AB000401543F805B05B590093009B531A23F07F
:101AC0007F43012B0BD1244B4FF4806043F0010383
:101AD00098473B6843F805B05B590193019B386810
:101AE000D0F80455C0F84463631B23F07F43012BF7
:101AF0001AD108F5A878184B013440F8284043F073
:101B000001034FF4806098473B68D3F804359D4249
:101B100008D13B680020C3F84463C3F8046303B0F2
:101B2000BDE8F08F0D20FAE78244C9F1FF19CAF829
:101B30004045D0F80435E21A013A22F07F4209F517
:101B40007F499145EED3002AE3D10134CAF84045DC
:101B5000D0F804259342DBE7608500000368022289
:101B6000C3F8442309B1C3F8042370474FF48271CA
:101B70000068FFF7E5BE4FF4803303FA01F1036814
:101B8000C3F84813C3F8081370475031890089B26D
:101B90000068FFF7D5BE0368D3F80405704700005E
:101BA00090F9043001215A0903F01F0301FA03F3ED
:101BB0004032024941F82230704700BF00E100E0A6
:101BC000024B034A1B681068184700BF98080020A2
:101BD0009008002010B561B1B2FBF3F403FB1424AC
:101BE000A4B244B9C0E9001484608281C381204654
:101BF00010BD0E20FCE70920FAE737B550E8013F99
:101C00009DB2C48925448489A54228BF2D1B04891F
:101C1000A54202BFBFF32F8F002207E0C5EA0305EC
:101C200040E80154002CE9D14FF001028DF8032067
:101C30000193019B9DF803200B6002F0FF0322B18A
:101C40000B880068184403B030BD1846FBE70A88CB
:101C50004B889A4209D150E8012FC2EA024240E87B
:101C60000123002BF7D1012070470020704737B5C2
:101C700050E8023F1FFAA3F5C488A54202BFBFF394
:101C80002F8F00220DE0C48925448489A54228BFF6
:101C90002D1BC3EA054540E80254002CE8D14FF063
:101CA00001028DF803200193019B9DF803200B6036
:101CB00002F0FF0322B14B880068184403B030BD26
:101CC0001846FBE70A884B889A4209D150E8022F50
:101CD000C2EA224240E80223002BF7D101207047DC
:101CE0000020704750E8002F0B4640E8003C9CF075
:101CF000000FF7D11046704750E8002F42EA010369
:101D000040E8003C9CF0000FF6D11046704750E8C8
:101D1000003F43EA010240E8002C9CF0000FF6D19E
:101D20001046704750E8002F02EA010340E8003CEB
:101D30009CF0000FF6D11046704750E8003F03EAD0
:101D4000010240E8002C9CF0000FF6D110467047CD
:101D500050E8003F03EB010240E8002C9CF0000F2C
:101D6000F6D11046704750E8003FA3EB010240E86F
:101D7000002C9CF0000FF6D1104670470121FFF7B0
:101D8000BBBF0121FFF7C3BF0021FFF7CBBF00217D
:101D9000FFF7D3BF2DE9F0478368D3F86441C4F35C
:101DA000400488B0074634B10022114608B0BDE8AF
:101DB000F04701F00BBD012906D91E4A022108B0E7
:101DC000BDE8F04700F0B0BC1B4D1C4EDFF870A022
:101DD0004FF06408A146761B1C23B6FBF3F6A6421F
:101DE00005F11C0502D108B0BDE8F08755F81C0CC0
:101DF00055E90623017900689A1A1B1ADBB203938E
:101E000008FB03F3B3FBF2F3CDE9019335F8043C8F
:101E10000093CDE9061255F8083C11FB08F138464D
:101E2000B1FBF2F1CDE904215246082100F07CFC1F
:101E30000134D4E7C4850000A87C0000E07C0000E9
:101E4000D785000010B590B1D0E9012301689B1A35
:101E5000DBB20A60013BDBB2FF2B026802D100203B
:101E6000107110BD11684C1C14600B70F2E70E204D
:101E7000F7E738B504460020FFF75EFD2268636887
:101E80001168994213D9481E106011F8015CE3688B
:101E9000218B01FB0535A36811791B1ADBB299422E
:101EA00000D213710020FFF749FD284638BD0025F8
:101EB000F8E738B5054600200C46FFF73DFD2A68D7
:101EC0001368591C1160E968641A298BB4FBF1F49A
:101ED0001C700020BDE83840FFF730BD30B18A6883
:101EE000B2F8643143F02003A2F8643170474368CC
:101EF00010B59C686068036801219B689847A368D7
:101F000010B903221A7010BD0422FBE709680068AB
:101F100005F0A8BD08B105F0CCBD704738B58368A1
:101F200005460068DC7FFFF7F5FFAB685A7E20446A
:101F3000B0FBF2F302FB1300B0FA80F0400938BDA9
:101F400010B584680068FFF7E5FFE37F627EA07646
:101F5000C0B20344B3FBF2F102FB1133013323752A
:101F6000A37F01311844A175B0FBF2F3591C02FBA9
:101F700013030133E175637504F1140010BD38B526
:101F80008368054600689C7FFFF7C4FFAB685A7EF4
:101F90002044B0FBF2F302FB1300B0FA80F04009DA
:101FA00038BD00002DE9F843089C1E460F46E1B9F4
:101FB000184D194C641BE408944204D9174800EBEF
:101FC0008208BC4201D100230AE06B68D8F8000007
:101FD000196805F047FDA946083520B9D9F804303D
:101FE0003360BDE8F8830137EBE70028EBD00178D8
:101FF000436839B12146104698472368002BE2D048
:102000003460EEE7120199189B58002BDBD0316049
:10201000E7E700BF147B0000CC7B0000000000203D
:1020200030B50368D3F85C5185B00446EDB10023A8
:10203000092201A9284602F063FA2368029AC3F82C
:102040005C210021092201A805F0B7FC0023092228
:1020500001A9284602F04AFA284602F0EFF923685F
:10206000D3F85C0118B9C3F8580105B030BD01A917
:102070000023092202F044FA20680023092201A962
:10208000D0F85C01019302F031FAEEE707B58368FE
:10209000B9B1DA7E8A4211D00B4A009233228DF810
:1020A000042001F12F028DF805206D22ADF80620E5
:1020B000D9766A460549006901F0C5FF03B05DF8AD
:1020C00004FBD976024AF5E71B5B313B138A00001B
:1020D000F8860000836807B51A7F8A4213D045F658
:1020E0001B32ADF8002034228DF8022001F12F02BE
:1020F0008DF803206D22ADF8042019776A46034954
:10210000006901F0A0FF03B05DF804FB138A000032
:10211000014901F098BF00BF298A00000A46006803
:10212000014901F090BF00BF2887000009B1FFF707
:10213000F5BF7047014A024901F085BFEE860000F5
:10214000138A00002DE9F047002506460F46144685
:102150000560207840B105F0C0F960B1002304F8B3
:10216000013B33680B2BF4D93368002247F8232056
:102170002846BDE8F08733685A1C326047F8234090
:10218000054694F80080B8F1000FEAD0002D40F029
:102190008280B8F1270F06D0B8F15C0F00F0838081
:1021A000B8F1220F6FD12046FFF7B4FE611C024642
:1021B000204605F017FA4546E3E72046FFF7AAFE5A
:1021C000611C0246204605F00DFA0025D9E73028AB
:1021D00025D102234FF00008E05CA0F13001C9B224
:1021E00007295FFA83F917D8013341EAC801052BA3
:1021F0005FFA81F8F0D199462046FFF78BFE09F18E
:10220000FF3AA244821CA2EB09025146204605F087
:10221000E9F904F8018BB4E7B9F1020FECD17828A1
:1022200037D102214FF00008635CA3F13002D2B233
:10223000092AC8B214D842EA081303295FFA83F8BE
:102240000CD14FF0040A2046FFF764FE0AF1FF3973
:10225000A144821CA2EB0A024946D7E70321E3E727
:10226000A3F16102052A03D8573B43EA0813E4E7C8
:10227000A3F14102052A01D8373BF6E7022808D02E
:102280004FF0030ADFE7404605F027F900287FF406
:1022900068AF013475E7A8458FD0B8F15C0FF8D16D
:1022A0006078854293D12046FFF734FE04F101089F
:1022B00002464146204605F095F9444661E72DE97E
:1022C000F34106460F461446002514B902B0BDE896
:1022D000F081706803682246D3F80C80791901AB4D
:1022E000C047019B1D44E41A002BEED1B3681A7855
:1022F000032AEAD0D3F864219206FBD5B3F864210F
:102300006FF34512A3F86421DFE72DE9F04F05468E
:1023100085B090460F46002971D00024385D05F045
:10232000DCF840BB5FFA88FB05F1100A3846FFF77E
:10233000F1FDAB685B7E001BA3EB0803984207EB43
:1023400004091AD94A46002612F8010B0293019299
:10235000039205F0C2F8DDE9012320B112F8013C37
:102360000A2B35D03346A968487E08EB060188421F
:102370002DD90136E8E70134D0E74B460026B042BC
:1023800019D013F8012B0A2A04EB060A1DD128697B
:1023900001F04EFE32462E4649462846FFF78FFF93
:1023A00056F8100FFFF7B4FE5FFA88F130460AF1D5
:1023B0000104FFF7BBFE2869391901F044FE2869C2
:1023C00005B0BDE8F04FFFF7A3BE0136D7E71E46C4
:1023D000286901F02DFE324649462846FFF76FFF77
:1023E0003444385D05F079F838B92869FFF790FE74
:1023F00059465046FFF79AFE98E70134F1E705B0D9
:10240000BDE8F08F0A4619B10249006801F01BBE11
:10241000704700BF2E8700000A4619B102490068C4
:1024200001F011BE704700BF2287000070B505465D
:10243000FFF786FD83790278817801339A4204465A
:1024400001D1012915D0012905F1100604D901395E
:10245000C9B23046FFF7D6FF2378A1798B4209D95C
:10246000013B591AC9B23046FFF7D6FFAB680022CC
:10247000DA7770BD0131C91AC9B23046FFF756FE8E
:10248000F4E7F8B50546FFF75BFD04468778C678A4
:102490002846FFF743FD78B12869FFF739FEB742B8
:1024A00005F110050ED161782378C91A2846C9B202
:1024B000BDE8F840FFF7B0BF2846FFF760FD0028F1
:1024C000EAD1ECE7A378E178C91AC9B22846FFF748
:1024D00099FF237861788B42E7D9591A2846C9B207
:1024E000BDE8F840FFF722BE2DE9F34106468068BB
:1024F000414F002480222146A0308DF8034005F092
:102500005CFA3E49306901F09EFD306901F090FDB2
:102510004FF47A7547F00107706803680122D3F819
:1025200010800DF1030101ABC047019B5BB94FF671
:10253000C010B847019B002BEED1013DADB2002D7C
:10254000EAD10D2033E09DF80330B1681B2B46D053
:1025500091F8A0201B2AEDD1522B40D10C4400232E
:1025600084F8A03091F8A1205B2A1DD101F1A200CE
:10257000022510F8012B0135EDB23B2A6CB219D1BE
:10258000002C1FDB05F1A0040C44002214F8010B01
:10259000D0B9FA2A28BFFA22FA2B28BFFA230A75E3
:1025A0008B7581F8A00002E081F8A0300B2002B00A
:1025B000BDE8F08103EB830302EB4303303B802D46
:1025C0009BB2D6D10C20F2E702EB820200EB420074
:1025D00001353038EDB282B22806F3D4D6E70A19B5
:1025E0000134E4B2092C82F8A030A3D9002381F889
:1025F000A0300420DBE700BF408700001387000005
:1026000038B50546FFF79CFC027843789A420446A9
:102610008378C27801D1934214D09A4205D9D21A54
:10262000D2B20B49286901F00EFD237861788B4204
:1026300005F1100007D9591AC9B2FFF7EDFEAB68D2
:102640009A7FDA7738BDC91AC9B2FFF76FFDF6E78E
:102650001C870000F8B51E46C3685B680546986095
:102660004068036817461C68294A2B46A047044661
:10267000002844D1686901F0DFFE044600283ED1FD
:10268000A8684FF4B4722146C0E9564405F095F9A4
:10269000AB682048B3F8642142F02002A3F864211B
:1026A000B3F8642167F38202A3F86421B3F86421CC
:1026B00042F00802A3F8642101221A7045F21802C0
:1026C0001A83154A154B9B1A4FEAD30C2146043244
:1026D000614516D1072B04D9114B0E48042204F092
:1026E0009EFF66B19DF81810E868FEF73FFD0028D0
:1026F000A1BFEB68DB6801225A71B8BF04242046F1
:10270000F8BD52F831703F6840F8047B0131DFE7D3
:10271000DD1E000000000020147B0000CC7B0000C8
:102720000D1F0000FFF7CBBD0CB473B506AB0E4612
:1027300053F8045B81680193D1F864315B07044668
:1027400020D5CB7EB3421DD002221B31684605F056
:102750000BF931462046FFF799FC01AA294620696A
:1027600001F0EEFC9DF800102046FFF78FFC9DF86D
:10277000011011B12046FFF7ADFC02B0BDE870407A
:1027800002B0704701AA2946206901F0D9FCF4E79C
:10279000F8B504468068857FAB187F2B0F46164638
:1027A0003ADC002A38D0C37FED1A03F1200113442C
:1027B0002033EDB201446A1C184404F013FFA068F2
:1027C000C37F203332463946184404F00BFFA0681B
:1027D0002030FFF79FFBA268D37F9077203313440C
:1027E00020460E4A0821FFF79FFFA368DA7F324494
:1027F000DA772046FFF792FB40B12069FFF788FCAB
:1028000055B12046BDE8F840FFF73BBE2046FFF734
:10281000B6FB0028F1D1F3E7F8BD00BF138A000032
:102820002DE9F04104468068D0F86431827FC3F31B
:102830000008C37F5FFA88F7D51A0E46EDB2002F65
:102840003ED17E2A40D83DB103F12001213301441D
:102850002A46184404F0C6FEA368DA7F1A4482F8B8
:102860002060002F72D19A7F0132D2B29A7713443E
:1028700083F82080002D72D02046FFF761FB82781C
:10288000C3789A4204F1100620D1A268D37F203386
:10289000134408212046354AFFF746FFE91BC9B219
:1028A0003046FFF7B9FDA268D37F0133D3772046C6
:1028B000FFF734FB10B32069BDE8F041FFF728BCF7
:1028C0007E2AC9D9002DC7D1BDE8F0812069284AE8
:1028D000264901F0B8FBA268D37F20331344204679
:1028E000224A0821FFF720FF2069224A1F4901F0F0
:1028F000AAFB01213046FFF711FCD4E72046FFF781
:102900003EFB0028E0D02046FFF71AFBC278837810
:10291000013AD21A12F0FF02054604F1100603D064
:102920001549206901F08FFB2069FFF7F1FBE97879
:10293000AB78C91A3046C9B2FFF764FD297801396E
:102940003046C9B2BDE8F041FFF7F0BB002D93D18E
:102950009A7F0132D2B29A77134483F820503246DC
:102960000649206901F06FFB9DE700BF138A000054
:10297000F2860000F58600001C87000048840000F5
:10298000F0B5826885B000250446CDE901558DF883
:102990000C50D2F860610F46002941D1002E3AD088
:1029A000FFF744FDA0683B46D0F86001092201A969
:1029B00001F0A6FDA068029BC0F86031857F002B66
:1029C0004CD1A030FFF7A6FAA36830B303F1A00101
:1029D00003F1200005F024F8A0682030FFF79AFAF0
:1029E0008DF80C009DF80C30A268AB42D37793773A
:1029F00002D22069FFF79EFBA3682D4A20462033B0
:102A00000821FFF791FE2046FFF788FA002848D0FA
:102A10002069FFF77DFB05B0F0BD83F82000DBE700
:102A2000D2F85C31B342F6D0D2F85831002BF2D054
:102A3000FFF7FCFCA368D3F8600130BB03F1200072
:102A4000FFF768FAC5B2A068D0F85831C0F8603115
:102A5000C5B100F12001A03004F0E2FFA06801A997
:102A600000230922D0F8600101F04AFDA0689DF81A
:102A70000C2000F1200109230132D0F8600101F09F
:102A80003FFDAFE780F8A050E8E72B46092201A9F7
:102A900001F036FDA368019A9DF80C50C3F860213F
:102AA000DCE72046FFF76BFA0028B1D1B3E700BF9F
:102AB000138A000038B504468068C37F857FED1A0D
:102AC00015F0FF0540D003F12101203301442A46CF
:102AD000184404F087FDA268937F013B937720465A
:102AE000FFF72EFA8278C3789A4215D1A268D37F75
:102AF000203313442046154A0821FFF715FE54F8E9
:102B0000100F1249124A01F09EFA691E2046C9B2FE
:102B1000BDE83840FFF780BC0E4A0C49206901F03F
:102B200092FA2069FFF706FBA268D37F2033134493
:102B30002046064A0821FFF7F7FD2069064A0349A7
:102B4000BDE8384001F07FBA38BD00BF138A0000ED
:102B5000FC860000F2860000F58600002DE9F041B9
:102B6000C3685B6890B004460D46002203A918684C
:102B700001F0B3FD002840F08B808DB1039801F087
:102B8000A6FCA268D2F854310133C2F8543103F0E4
:102B90000703012B04D00125284610B0BDE8F081C1
:102BA0002046FFF7CDF981780129064605D901397C
:102BB000C9B204F11000FFF725FC3178012905D9CD
:102BC0000139C9B204F11000FFF726FC2069FFF7B4
:102BD000B1FA2DB12F4A02212046FFF7A5FDDBE710
:102BE0000023082204A9039801F08AFC069B07939E
:102BF000059B08939DF810308DF8255003F00302D3
:102C0000012A25D1BDF81060049F0398C3F3C203C5
:102C1000C6F383168DF82430B20008230AA901F008
:102C20006FFCC7F3952723690093324607AB0AA9C7
:102C30003846FEF74BFB039801F049FCE3685B68FC
:102C4000002203A9186801F048FD0028C8D0A2E7B7
:102C5000022AF0D1BDF81260C3F3C203B6098DF8A1
:102C600024304FF00808082E374628BF082743466F
:102C70003A460AA9039801F043FCF61B236907AA08
:102C800039460AA8B844FEF785FB002EEBD1D2E7FF
:102C9000002581E7C0860000436801219868FFF79E
:102CA0005DBFF7B547680191BC68A3681E78042E24
:102CB0000ED001A9386801F046FC054650B90198CC
:102CC00001F001FC032E03D129462046FFF746FF01
:102CD00003B0F0BDF11E18BF01212046FFF73EFFF3
:102CE000E7E700002DE9F04F04468068A5B0102109
:102CF00000F5B270FFF70BF8A3681B78022B40F0C9
:102D0000938000230B936068036801221D690DF115
:102D10002B010BABA8470B9B002B6CD09DF92B30E4
:102D2000002BF0DB01F0F6FBA06843780593022B43
:102D300000F20685DFE813F0030044044B049DF81D
:102D40002B500D2D31D00A2D2FD0B0F864316FF3F8
:102D50008D13A0F86431092D00F0FD8100F2EA81A5
:102D6000002DD0D0082D00F0D183284604F0BAFB06
:102D70000028C8D0A3689DF82B10D3F86451C5F380
:102D8000C00515F0FF0F40F01683987F7E28BAD853
:102D9000DE7F721CD2B2DA771E441A44013086F804
:102DA000201082F820509877ADE7D0F8643113F402
:102DB0007F5F05D0D0F86431C3F387139D42CAD139
:102DC000B0F8643165F38D13A0F86431837F002B74
:102DD00037D1C0F860312069FFF79AF9A368022261
:102DE0001A700022DA8383F820202368B14A032175
:102DF0002046FFF799FC00212046FFF7AFFE98B16F
:102E00002368AC4A03212046FFF78EFCA368D3F861
:102E10006421120708D520462033A64A0821FFF76F
:102E200083FC2046FFF72DFB206901F001F9A06823
:102E30006FF0100100F5B270FEF77FFF25B0BDE81E
:102E4000F08F90F82030002B5CD1A0682030FFF785
:102E500061F8A3680026C5B2C3F8606115B3D3F862
:102E60005801002800F08F803346092217A901F08D
:102E700047FB9DF864309D4240F08580A06809239F
:102E800000F1A0016A1CD0F8580101F039FBA068DC
:102E900000F1A001203004F0E5FDA368002870D106
:102EA00083F8A0002046FFF7ABFB2046FFF736F87B
:102EB00010B92069FFF72CF9A26817A920320EA8D3
:102EC000FFF740F90E9A0346002A84D0002840F00C
:102ED000A080794F794EF61BF6080546AE42179B47
:102EE00040F09D80764A00920221764A2046FFF704
:102EF0001BFC73E70135B5F5807F04D1002283F810
:102F00002020A2E70025A3682B44EEB293F820000E
:102F100004F0E3FAA3680028ECD16EB19A7F03F1C4
:102F200020000132521B411904F05CFBA268937F20
:102F30009B1BDBB29377D377A568AB7F1F331D4410
:102F40005FFA85F8A946EFB2A8EB070699F80000EA
:102F5000F6B2013D04F0C1FA0028F3D1A268937FD4
:102F600003F11F01114489453FF46FAF9E1BA7EB8E
:102F7000080716443B44DBB286F820009377D377EA
:102F800063E783F8A060082705F10A0604EB070849
:102F90003146606901F068FA0546002833D0A3681D
:102FA000D3F85801A8B9C3E95655CDE917009B7F5E
:102FB0008DF8643017A928460023092201F096FAFB
:102FC000A1688A7F092301322031284601F08EFA58
:102FD00068E70023092217A901F092FAA068189562
:102FE0000023092217A9D0F8580101F07FFA002325
:102FF0001893A368D3F8582117929A7F8DF864200C
:10300000C3F85851D6E74046FFF70AF8013FBFD151
:1030100048E72D4A02212046FFF786FBDEE67A6864
:103020001846116804F01EFDB846083718B101357E
:10303000AE42BFF453AFA0680021102204300F91BC
:1030400004F0BBFCD8F80450EB682BB195E80F00F6
:10305000A668043686E80F00D5F808B0DFF86C9053
:10306000DFF86CA017AF00264FF0010800250E9B7B
:1030700043450BD94946786804F0F4FC50BBA2687C
:10308000B2F8643143F00203A2F86431A3681B690B
:10309000002B49D00E9917AA02EB8602891B204605
:1030A0009847A368B3F864216FF34102A3F8642141
:1030B00094E600BF138A0000147B0000CC7B000064
:1030C000A4890000E288000090890000B88900000F
:1030D000BB8900005146786804F0C4FC0028CED0BB
:1030E00013AB00932A460FAB41465846FEF75AFFF2
:1030F0006A1CCBD00F9B002BC8D01968786804F0ED
:10310000B1FC01350028B2D10F9DEB6833B195E8D1
:103110000F00A668043686E80F00464608F101084D
:10312000D5F808B00437A1E7A54A02212046FFF7E9
:10313000FBFAB6E71B2D0BD07F2D7FF416AED0F82F
:10314000643118077FF5DFAD2046FFF7B3FCDAE501
:1031500001234370D7E5D0F864311B077FF5D3AD69
:10316000837FC3F17F0313F0FF0303933FF4CBADE1
:1031700000F12001C27FA03004F0F6FBA368DA7FE3
:103180001344002583F8A050D87F04F0A6F9A26864
:103190000690431B18BF0123C2F8605117A9A03243
:1031A0000CA80793FEF7CEFF1798FEF7B3FE059B1A
:1031B0000493CDE90D55C7B21E460295AB46A9460C
:1031C0000C9B23B1079A013B1344B3427CD8069B66
:1031D000002B38D124AB03EB860353F8340CFEF7F5
:1031E00099FEC7B224AB03EB86034FF0000A0993A4
:1031F0000AF1010308930FAB009352460DAB314621
:103200002846FEF7CFFE0D9B002B00F0C180196809
:10321000099B3A4653F8340C04F021FB8046A8B9C8
:10322000029B013302930D9B18680E9B8BB9FEF72E
:1032300071FE039AC3B20493DB1B9A4201DDDBB239
:103240000393D34631E0059FCCE7D146DDF820A0BB
:10325000CEE7FEF75FFE049BC0B2834238BF034651
:103260000493039B0BB313AB009328460EAB4A4663
:103270003146FEF797FE0D9B18680E9BD3F800C0F1
:1032800007EB08025FFA88F1835C2BB9039B8B4242
:1032900028BF0B46039308E01CF802209A42F5D1A0
:1032A00008F10108B8F5807FEAD10D9B0E93089BC9
:1032B000002BCAD1434A04212046FFF735FA002DDE
:1032C0006AD14FF0FF3965E024AB4FF0000803EB03
:1032D000860A0FAB009342460DAB31462846FEF7F7
:1032E00061FEB8F1FF3F05D1364A04212046FFF7C1
:1032F0001BFA08E50D9B002B3FF405AD19685AF841
:10330000340C04F0AFFB08F101080028E1D10D9B5B
:103310009D68002D45D1029B002B3FF4F4AC012B9E
:103320006FD12B783BB10FAB00934A460EAB3146C1
:103330002846FEF737FE0E9B1868FEF7EBFDB842F5
:1033400006D00E9B039A196820463944FFF720FAED
:10335000A368DA7F134493F8200004F0BEF8A36852
:10336000002831D1D3F86421D70723D5B3F86421DD
:1033700060F30002A3F8642120212046FFF750FAF1
:10338000A268B2F8643143F00103A2F86431BAE4F0
:10339000002DC0D10025BEE70D9B4FF0FF39002B5B
:1033A000B9D00C9B079A0136F6B213449E42FFF443
:1033B00007AFB0E720212046FFF732FAA3E400BFB1
:1033C000C2890000E0890000DA7F9B7F9A42BFF447
:1033D0009AAC2046FEF7B4FDA2688578D37F01330E
:1033E000D3772046FEF7ACFD8378AB4205D10121AF
:1033F00004F11000FEF792FE85E42069FEF788FED6
:1034000081E4A368DFF8649300225A7724AB03EBCE
:10341000860306930BF1010305930FAB00935A4605
:103420000DAB31462846FEF7BDFD0D9B1968069B86
:103430003A4653F8340C04F012FA70B9029B013B7F
:1034400002930D9BD3F800B0BBF1000F08D1A36825
:1034500083F81DB0029B002B3FD0DDF814B0D9E7F4
:103460004846FEF757FD049BA2681844C3B248467D
:1034700092F819800893FEF74DFD07905846FEF725
:1034800049FD089B079A181A5FFA80FAA068417FE5
:10349000A8EB0208B8FBF3F3DBB2B1FBF3F203FBDA
:1034A000121301F1010C13F0FF0F80F81DC00DD1B4
:1034B000CDF800B04B46A34A07212046FFF734F968
:1034C000514604F11000FEF731FEC3E75B469E4A09
:1034D00007212046FFF728F9F2E723689B4A204698
:1034E0000321FFF721F9A368974A203308212046DA
:1034F000FFF71AF92046FEF7C4FF0E9B039A1968DE
:1035000020463944FFF744F9FFF7FDBBD0F864319A
:103510001E077FF5F8AB867F002E3FF4F4ABC37F28
:10352000002B3FF4F0ABF61A03F12001F6B21F3383
:10353000721C0144184404F055F8A368DA7F013A7C
:10354000DA779A7F013A9A77002E37D02A46804957
:10355000206900F078FD2046FEF7F2FC8278C378FF
:103560009A4213D1A268D37F2946203325461344BB
:103570002046754AFFF7D8F855F8100FFEF7DAFD28
:1035800031462846FEF748FFFFF7BDBB714A6E493A
:10359000206900F058FD2069FEF7CCFDA268D37FBA
:1035A000203313442946684A2046FFF7BDF86A4A8B
:1035B0006549206900F047FDFFF7A5BB674AF7E7BB
:1035C0009DF82B305B2B40F0BB800223C1E500232C
:1035D0004370D0F8643119077FF50DAC9DF82B309E
:1035E000313B1B2B3FF68FAB01A252F823F000BFFB
:1035F0000D3700001B3700003B370000FF3600008E
:10360000072D0000072D0000072D0000072D0000EA
:10361000072D0000072D0000072D0000072D0000DA
:10362000072D0000072D0000072D0000072D0000CA
:10363000613600006D36000071360000BD360000B6
:10364000072D000003370000072D00001137000090
:10365000072D0000072D0000072D00001F37000078
:1036600001212046FFF78CF9FFF74DBB0021F8E759
:103670002046FEF765FC037842789A42054604D15D
:103680008178C27891423FF43EAB6A799A4204F164
:1036900010060ED132492069012200F0D4FC69796C
:1036A0003046FEF7B9FEA268D37F0133D377FFF728
:1036B0002ABB01213046FEF731FDF4E72046FEF734
:1036C0003FFC8379027801339A42054603D183781F
:1036D000012B3FF418AB012A20690BD1214900F0DE
:1036E000B2FC697904F11000FEF720FDA268D37FD7
:1036F000013BDBE701221C4900F0A5FCF6E70323B0
:1037000043702046FEF77CFFFFF7FDBA03234370AA
:103710002046FEF78BFEFFF7F6BA03234370D0F87E
:103720006431B0F8642103F0010383F0010363F313
:103730000002A0F86421FFF7E6BA03234370FEE419
:10374000002306E50C8A0000138A0000128A00009C
:1037500048840000F2860000F58600000F87000014
:103760001C8700002E870000228700004384000091
:10377000836870B51E78012E044620D14068036826
:1037800000219B6898470546B8B908212046FEF7F6
:103790007DFC31462046FEF79DFC0A49206900F079
:1037A00052FCA3680222DD8383F820501A700321A3
:1037B0002368054A2046FEF7B7FF284670BD082556
:1037C000FBE700BF288A0000138A00002DE9F04FB4
:1037D000044689B07E48DFF81C9217460E4604F076
:1037E00068F905467B4804F064F9A368CDF80090B9
:1037F000794A5B6808212D1A2046FEF795FFA368D9
:103800005868FEF787FB8046484604F052F9A368E3
:1038100008EB000292B299682046FEF776FD6F4AE7
:1038200000212046ADB2FEF77FFF3FB136B14FF029
:103830000C09B04609FB0769C84527D1654804F063
:1038400038F902300544ADB2614B009305F103082D
:10385000634A082120462B461FFA88F8FEF764FFCA
:10386000424660492046FEF750FD36B10C23DFF892
:10387000709103FB0767BE4222D1A368D3F80C8086
:10388000B8F1000F5AD109B0BDE8F08FD8F80400A4
:10389000FEF740FB8246D8F80000FEF73BFB5044A1
:1038A000A8420AD9D8F80400FEF734FB0546D8F838
:1038B0000000FEF72FFB0544ADB208F10C08BBE792
:1038C000D6E9002393B34AB30192424A00920821F9
:1038D000454A2046FEF728FF7068FEF71BFB83462B
:1038E0003068FEF717FB82463A4804F0E2F8A5EB91
:1038F0000B03A3EB0A031B1AD9B204F11000FEF765
:1039000015FC3A223949206900F09DFBB16889B164
:1039100042462046FEF7F9FC0C36ACE700932B46F6
:103920004A4608212046FEF7FFFEEFE7002AEDD0C9
:103930000092F4E72069FEF7EBFBEDE7002203922B
:10394000174604AE009603AB0121404602F101097F
:10395000FEF728FB039D5DB12868FEF7DBFAB8424D
:1039600004D9039B1868FEF7D5FA87B24A46E9E7FF
:10397000B9F1010F87D01E4ADFF864A0294620461E
:10398000FEF7D2FE2A46BD1CADB203AB0096012164
:10399000404602F10109FEF705FB039B002B3FF4B3
:1039A00072AF1B68009308212B4652462046FEF753
:1039B000BBFE039B596831B17A1D92B22046FEF7D7
:1039C000A4FC4A46E1E72069FEF7A2FBF9E700BF45
:1039D00046870000388A00000D8A000041890000F7
:1039E0004B8900005389000066890000488400006C
:1039F0006F8900001887000000221146FFF7E6BE1D
:103A0000022910B5044608D18368D3F864319B07B6
:103A100003D5BDE81040FFF7EFBF2069054A06490E
:103A200000F011FB2069054A0349BDE8104000F091
:103A30000ABB00BF00870000138A00000487000053
:103A4000012906D0022906D18368D3F864319B0787
:103A500001D5FFF7D1BF024A0221FEF765BE00BFC4
:103A6000C289000038B58368D3F86441C4F34004C8
:103A70000D4634B100221146FFF7A8FE2546284620
:103A800038BD0029FBD05B68024A0221FEF74CFEDC
:103A9000F5E700BF6C880000012937B505461446DC
:103AA00004D103B0BDE83040FFF7A6BF023918BF0C
:103AB0000121FFF7D7FF48B963680193044B0093D6
:103AC000044A236802212846FEF72EFE03B030BDCB
:103AD000797E0000DF880000012907B504D103B01A
:103AE0005DF804EBFFF788BF02290AD15368019300
:103AF000084B00931368084AFEF716FE03B05DF802
:103B000004FB8CBF0121002103B05DF804EBFFF73B
:103B1000A9BF00BF797E0000DF88000011F1FF31EE
:103B200010B518BF01210446FFF79CFF40B9054AB4
:103B30000549206900F087FAA36845F218021A8344
:103B400010BD00BF09870000138A000001292DE97C
:103B5000F3410446154637D18668FEF7C5FC38BBED
:103B6000A36804F11005FA21284693F814809F7D7C
:103B7000FEF7D4FA20691E49FA2200F064FA2046C2
:103B8000FEF7B2FCA0B9A368197D7176A368A1EB1A
:103B900008019B7D33762846C9B2FEF73DFC317E95
:103BA000C91BC9B2284602B0BDE8F041FEF72ABCE5
:103BB000A36845F218021A830E4A0421204602B077
:103BC000BDE8F041FEF7B0BD022994BF00210121FC
:103BD000FFF748FF48B96B680193074B00932B68C8
:103BE000064A02212046FEF79FFD02B0BDE8F081A3
:103BF0001C87000007890000797E0000DF88000034
:103C00002DE9F04111F1FF3186B018BF01210546C1
:103C1000FFF728FF40BBAB68DFF85480D3F85C6146
:103C20000446EEB1082C1BD030460023092203A91C
:103C300000F066FC9DF81420A96830460923013283
:103C4000A03100F05DFCAB68049EA0330093671CBC
:103C50002346424600212846FEF766FD3C46E0E743
:103C6000AB68002283F8A02006B0BDE8F08100BF59
:103C7000FD88000011F1FF3110B518BF0121044685
:103C8000FFF7F0FE30B9A368B3F8642160F3820255
:103C9000A3F8642110BD11F1FF3110B518BF012147
:103CA0000446FFF7DFFE30B9A268B2F8643143F092
:103CB0000403A2F8643110BD11F1FF3110B518BF33
:103CC00001210446FFF7CEFE30B9A368B3F86421A2
:103CD00060F3C302A3F8642110BD11F1FF3110B5E8
:103CE00018BF01210446FFF7BDFE30B9A268B2F843
:103CF000643143F00803A2F8643110BD022973B5A2
:103D00000D4694BF0021012104461646FFF7AAFE86
:103D1000014658B9022D0BD1736801930C4B0093E7
:103D20000C4A336829462046FEF7FEFC02B070BDFF
:103D3000A368094AD3F8643113F0080F074B18BF82
:103D40001346074A204602B0BDE87040FEF7ECBCBF
:103D5000797E0000DF880000089F0000E8880000EE
:103D6000EC88000011F1FF3110B518BF01210446A5
:103D7000FFF778FE48B9A368C3F85401E3685B68AD
:103D8000BDE81040186800F0EABC10BD7FB511F125
:103D9000FF3118BF01210446FFF764FE0546B8B99C
:103DA000E3685B681E68304600F0D6FCB268A16824
:103DB000C0B2CDE9010264234343B3FBF2F3DBB2AB
:103DC0000093D1F85431034A29462046FEF7ACFC53
:103DD00004B070BDA88800001A60C0681A4600F0E0
:103DE00095BD000010B4074C0378E35C23B10430A8
:103DF0005DF8044B01F0F0BD0C305DF8044B01F0B0
:103E000013BB00BFF80800204069054A0378D35C63
:103E100013B1043001F0A0BE0C3001F0D3BB00BFE1
:103E2000F80800200378044AD35C13B1043001F091
:103E30006BBD0C3001F0A2BAF808002010B50446A2
:103E40004069FFF7EFFFA368BDE810401868FDF771
:103E500085BC000037B51A6004461A46006900F0B8
:103E6000DCFC054608BB6069134A0378D35CFBB1F0
:103E7000043001F0F9FDC0B9FF23019301AA012329
:103E80006946206900F007FD78B99DF80420009983
:103E90006069FFF7A7FF636893F82930054623B1EF
:103EA00018B90199206900F070FD284603B030BDB3
:103EB0000C3001F003FBDEE7F808002037B5FF23E4
:103EC000044600936A46012301A9C06800F054FC2F
:103ED00098B9009888B163690B4D0199C2B21878FE
:103EE000285C60B1181D01F0CBFD30B9A3682246F3
:103EF00040F266611868FDF718FC03B030BD03F1AD
:103F00000C0001F0E7FAF0E7F808002073B5037839
:103F1000FF26012B05460C4601960BD0BBB1022BA8
:103F200006D1017AE06800F061FC2046FFF7C6FF89
:103F300002B070BD017AE06800F058FC2B7A002BCB
:103F4000F3D063680020D3E900219047EDE7017AC0
:103F5000206900F01AFD01AA012369462069019633
:103F600000F099FC019A22B1D2B200996069FFF782
:103F700039FF63680120D3E900219047D8E70000AA
:103F800038B5436893F8283004460D460BB3836870
:103F90001868FDF7E3FB30F008030ED175B16069D6
:103FA000FFF740FF616860690022083100F048FFB8
:103FB00068B96368012283F8292038BD636893F8E3
:103FC000283043B12046BDE83840FFF777BF0620D0
:103FD000F3E70029E3D1064AA0680021FDF79AFB28
:103FE0006368012283F828200028EBD0E5E700BFB2
:103FF000093E000038B5044640680D46C0E900237C
:10400000002303852022083003F0AEFC2C612946F2
:10401000064A606900F014FF054628B9E06800F020
:10402000A2FB206900F09FFB284638BD0D3F000031
:10403000826810B504462AB143690168006998474F
:104040000023A36010BD0EB403B5039921B104ABE6
:1040500001AA019300F074F802B05DF804EB03B01C
:1040600070470A2938B504460D4602D10D21FFF7E5
:10407000F8FFA3682268591CA160D554D4E9013225
:104080009A4204D32046BDE83840FFF7D1BF38BD7F
:104090002DE9F84F9946DDE90A43174682468846DE
:1040A0000A460126BA420FD24E4538BF4E4613F09B
:1040B000010B01D164B900240125B9F1010F1AD90E
:1040C00009F1FF397D43F8E7B2FBF7F20136E9E782
:1040D0009B070ED5B9F1000F0CBF30252025A64255
:1040E000EAD2013C29465046FFF7BBFF002CF6D12F
:1040F000E1E72025F3E7B8FBF5F39F42E2D9DFF8CB
:104100003C90B8FBF5F3504619F8031005FB1388F3
:10411000FFF7A7FFB5FBF7F3BD4207D2BBF1000FD6
:1041200002D00CB1A64203D3BDE8F88F1D46E8E7E4
:1041300020215046013CFFF794FFF2E7E98C000094
:104140002DE9F74F054617468846002900F03081D3
:1041500018F8011B49B92B7B002B00F02981284658
:1041600003B0BDE8F04FFFF763BF252940F0C080E2
:10417000002698F800302D2B424608F1010823D084
:10418000302B24D02B2B25D000242A2B02F1010127
:1041900023D13B681A1D1B683A601C440A461378F9
:1041A0002E2B26D101324FF00009104610F8011BCA
:1041B000A1F1300CBCF1090F1DD80A2303FB091330
:1041C000A3F130090246F0E746F00106D1E746F0D8
:1041D0000206CEE746F00406CBE711F8013CA3F156
:1041E00030000928DBD80A2202FB0434303C0A469E
:1041F000CBE74FF0000912F8011B01F0FB00682823
:104200009046F8D069290ED04AD8582964D006D8EB
:1042100025296DD098F80030002B99D19BE76329B0
:1042200062D06429F6D13A68D2F800A0111D8AEA5A
:10423000EA723960A2EBEA724FF0010B092A5BDCEB
:10424000CB4538BFCB462CB1BAF1000F01DB72076A
:1042500000D5013CB30702D5B9F1000F04D0F00737
:1042600002D4002C4ED10024BAF1000F52DACAF168
:10427000000A2D212846FFF7F4FE06F00302022A69
:1042800005D1B9F1000F02D1002C47D10024CDE9AE
:1042900000464B460A2251462846FFF7F9FEB9E789
:1042A00073294CD014D87029B4D13B681A1D3A60D8
:1042B000302128461C68FFF7D4FE78212846FFF7F6
:1042C000D0FE00220823CDE9003221461022E3E788
:1042D00075292BD078299DD139680A1D3A60CDE91E
:1042E00000464B46102228E03B681A1D19783A60B8
:1042F0002846FFF7B6FE8DE70A230BF1010BB2FB50
:10430000F3F29BE7A345AFD220212846013CFFF7FB
:10431000A8FEA6E77107B0D52B21ABE7A345B6D21F
:1043200030212846013CFFF79CFEADE73968CDE916
:1043300000460A1D3A604B460A220968ACE73B6812
:104340001A1D3A6016F00106D3F800A020D1BAF188
:10435000000F03D0504603F0ACFB0646B44200D930
:10436000C4B90AF1FF3A1EE028460136FFF779FE8C
:104370001AF806100029F7D1A642BFF44BAF002C63
:104380003FF448AF20212846013CFFF76AFEF3E7DF
:104390000026EDE720212846013CFFF762FEDDE71D
:1043A0002846FFF75EFE1AF8011F0029F8D131E711
:1043B00003B0BDE8F08F2DE9F047B0F806904479DE
:1043C000D2F800A09DF8208009FB04F4043C0646C6
:1043D0000AEB0300A0420F4688BFA4EB030A191D95
:1043E000C2F800A0B1FBF9F509FB15114DB9A9EB15
:1043F0000104544528BF5446BAF1000F04D1BDE86A
:10440000F0873668013DF1E704317B1970182246C8
:10441000B8F1000F0ED001461846AAEB040A03F0CB
:10442000A3FAD145254436684C464FF0000128BF19
:104430005446E1E71946F0E7FDF704BDF8B54679C3
:104440000146721E0546002393422D6803D30024C3
:10445000A64202D8F8BD0133F6E70F682846FDF7FB
:1044600028FD01343946F3E72DE9F843068BCD1CCE
:104470000746FDF7FEFC043E35440446B5FBF6F561
:10448000F0B14FF48073EDB28380C680013D0760C8
:1044900081464FF00008A84512D23846FDF7E9FCE6
:1044A000064648B163790133637108F10108C9F820
:1044B000000007608146EEE72046FFF7BFFF344665
:1044C0002046BDE8F88301210430FDF741BC10B55A
:1044D000012104460430FDF746FC10F0FF0F04D123
:1044E0002046BDE81040FFF7A9BF10BD1FB50392DD
:1044F0000022009203AAFFF75EFF05B05DF804FBFF
:104500001FB503920122009203AAFFF754FF05B0E2
:104510005DF804FB7047026813685268934291BFCC
:10452000D01A80680130801888BFC01A70470368AD
:1045300081681A685B688B4234BF01330023D31A49
:10454000584258417047F8B5044600200D46FDF723
:10455000F3F92046FFF7EBFF10B1237C002B3CD191
:104560002268A66853685168B14234BF0131002106
:10457000516030B11168A068814234BF013100211F
:104580001160E2686068511E072920D8DFE801F059
:1045900004101F141F1F1F182A78C2542046FFF74B
:1045A000BAFF23689A68824200D29860002415E01E
:1045B0002A8820F81320F1E72A6840F82320EDE745
:1045C000D5E9006700EBC300C0E90067E6E72946CC
:1045D00002FB030003F0C8F9E0E704240020FDF724
:1045E000ADF92046F8BD10B504460020FDF7A4F94A
:1045F0002046FFF790FF04460020FDF79FF9204674
:1046000010BD00002DE9F04F8368D3F86451C5F365
:1046100040058BB0074635B1002211460BB0BDE80E
:10462000F04FFFF7D3B8012906D9224A02210BB077
:10463000BDE8F04FFEF778B81F4C204EDFF88080C1
:10464000DFF88090DFF880A0361B1C23B6FBF3F662
:10465000AE4202D10BB0BDE8F08FE3680893236847
:10466000D4F808B09A6809922046FFF7BCFF099A6F
:1046700094F810E0642303FB00FCBEF1000F0CBFB4
:10468000C646CE465343B3FBFBF3CDE90432BCFB35
:10469000FBF1089B0191CDE9020B0093CDE906BE29
:1046A0006369524608213846FEF73EF801351C344E
:1046B000CEE700BFC4850000CC7B0000E87B000093
:1046C0003C8D0000458D0000518D00000368186886
:1046D0005B68C31A58425841704770B505460020C0
:1046E0000C461646FDF728F92846FFF7EFFF00288D
:1046F00030D129680B682EB90A68A868824238BF91
:10470000561C0E60EA686968501E07281CD8DFE84E
:1047100000F0040C1B101B1B1B14CB5C237000242B
:104720000020FDF70BF9204670BD31F813302380CF
:10473000F5E751F823302360F1E701EBC301D1E93C
:104740000023C4E90023EAE703FB0211204603F03B
:104750000BF9E4E70524E3E703689868704703680A
:1047600000229A607047836800225A609A60C3E909
:104770000422DA601A6070472DE9F04106460F46C0
:1047800090461D468BB9B0687368D0E9031403F1F5
:10479000010C0A1B62450FD10024C8F800401DB36C
:1047A000FDF7F5FA0020BDE8F0818068FDF7E6FA34
:1047B0000028E8D01120F6E701EA030223409A42DC
:1047C00038BF6444D8F800302CBFACEB0204641A44
:1047D0009C4228BF1C463368C8F8004013443B6025
:1047E000C3681C44C460DDE72846DCE78268436890
:1047F000106910B50133946803441B1B8B420AD324
:104800000C44C2E902441046FDF7BEFA002814BF6A
:104810000020082010BD0420FCE72DE9F84F0546D4
:1048200080688A469146FDF7A9FA804680BBD5E9A3
:1048300001431A69013414449A68A41AD9F8002073
:10484000944228BF1446C9F800406F689E683E40F5
:104850000137A7EB060B5C4509D92868514630445F
:104860005A4603F081F8F61B3444DA444646286879
:1048700022465146304403F077F8A868D9F8002062
:10488000836813448360FDF782FA4046BDE8F88FE1
:104890004FF01108F9E72DE9F84306460F46904618
:1048A00099467BB9B06882684469151B12D1C8F873
:1048B0000050B9F1000F02D00430FDF768FA284625
:1048C000BDE8F88380680430FDF758FA0028E9D085
:1048D0001125F4E77368D8F800101C401A40944280
:1048E0000DD28D4201D2C8F800503368D8F80020AC
:1048F0001C4443693C60134443610025DFE70133F6
:104900001B1B8B4238BFC8F80030EEE72DE9F84397
:104910000646806804300F469046FDF72FFA814620
:1049200080BBB26813699568ED1AD8F800309D42D3
:1049300028BF1D46C8F80050736811699468194073
:104940001C40A14228BF5C1C641AA54208D93368E8
:1049500038461944224603F007F82D1B274400214E
:1049600033682A461944384602F0FEFFB068D8F88A
:1049700000200369134403610430FDF708FA484638
:10498000BDE8F8834FF01109F9E7806808B582683F
:104990000369D21A8A4207D30B44C0E904330430B6
:1049A000FDF7F5F9002008BD0420FCE770B5446868
:1049B00006460D46206818B1B3682946984718B9CD
:1049C00023682B60256070BD2468F3E7436818688E
:1049D00008B102681A6070474368186870474368F6
:1049E000186800B97047884203D102681A60012034
:1049F000704703460068F4E710B50D49A1F58C72C5
:104A0000914201D800200FE08B1ADB1003EBD37327
:104A10005B1002EBC30452F83330834205D802D254
:104A200004F10802ECE7606810BD2146E8E700BF2A
:104A3000248F000008B5FFF7DFFF024B002808BFF6
:104A4000184608BDF78D0000C30710B507D4F02342
:104A50004008054A145C23401943115410BD090154
:104A6000C9B20F23F4E700BFB008002030B5094BEE
:104A70001C78094B196800239C4202DC0022104676
:104A800030BD11F83350854201EBC302F7D001333A
:104A9000F2E700BF9C080020D008002070B5044653
:104AA0000D46FFF7E3FF30B1436823B129462046A6
:104AB000BDE87040184770BD034B044819680022D8
:104AC0004908FCF732BE00BFA008002030010020DA
:104AD00010B5C0B2FFF7CAFF0446007801F096F99E
:104AE00063785A1E53425341834208D1044BD3E9A1
:104AF0000023134303D1BDE81040FFF7DDBF10BD15
:104B0000A808002038B5344A43080446D35CC207DD
:104B10004CBF1B0903F00F030D46042B5BD8DFE8E5
:104B200003F003232B373A00002954D00121FFF76B
:104B30008BFF0020FCF700FF0122A4F12003C4F149
:104B40002000264902FA03F322FA00F0034302FA96
:104B500004F4D1E9002014430343C1E900430020D9
:104B6000BDE83840FCF7EABE002918BF0221204604
:104B7000BDE83840FFF768BF41B10321FFF764FF8C
:104B800020460121BDE83840FFF788BF0121EEE74C
:104B900009BB0421EBE709B10321E8E7FFF754FF64
:104BA00029462046FFF77AFF2846FCF7C5FE01227A
:104BB000A4F12003C4F12000084902FA03F322FA09
:104BC00000F0034302FA04F4D1E9002022EA0404CD
:104BD00020EA0303C1E738BDB0080020A808002080
:104BE0002DE9F041124E134F00243378A34208DC24
:104BF000114BD3E90023134318D0BDE8F041FFF770
:104C00005BBF3D6805EBC40815F8340001F0FEF801
:104C100098F801104B1E594259410A1A514215F891
:104C200034005141FFF76EFF0134DEE7BDE8F0814B
:104C30009C080020D0080020A8080020092AF7B509
:104C400005460C4616463DD901F010F8D8B11E4B6A
:104C50001E481D601E4B1F4F1C701F4B0021202241
:104C60001E6002F0AAFE1D4B00200021C3E90001D6
:104C7000013CE4B20326FF2C0BD1194A194800214C
:104C8000FCF748FD03E000F0B9FF0028DFD003B0D7
:104C9000F0BD20B29DF806308DF8046005EBC0022F
:104CA00023F007038DF8063001A9937815F830003A
:104CB0008DF805303A4600F0E3FF013CE4B20028ED
:104CC000D9D0E4E70720E2E7D0080020B0080020B0
:104CD0009C080020D14A0000A0080020A80800205D
:104CE000E14B0000B892000070B5084D084E00245A
:104CF0002B789C4201D3002070BD3368012113F84A
:104D0000340001F039F80134F2E700BF9C080020BC
:104D1000D008002038B5074C051E04F1080318BF61
:104D20001C4623682BB11A6822605B6828469847A6
:104D3000F7E738BDDC08002020B9054B01225A7086
:104D4000FFF7E8BF012802D1014A9070F8E77047E9
:104D5000D408002038B5094C23786BB90848636043
:104D6000A3602361E36000F0A7F8054600F0B0F807
:104D700001232370284638BD8525FBE7D408002091
:104D8000394D000038B5134CA378054603F0FF00F9
:104D900073B115B16B68012098470020FCF7CCFD7A
:104DA000E3680133E3600020BDE83840FCF7C6BD8E
:104DB000FCF7C2FD25B1226913463BB92A60256183
:104DC000E368002BECD100F095F8E9E79D42F7D0BD
:104DD0001B68F2E7D40800201FB503788DF8003077
:104DE0004368019383688DF80830C3680393054ACC
:104DF000054B684653F8213052F82110984705B00A
:104E00005DF804FBE8080020F00800201FB50378D7
:104E10008DF800304368019383688DF80830C368CB
:104E20000393054A054B684653F8213052F8211088
:104E3000984705B05DF804FBE8080020F008002062
:104E4000F0B5184B0778DFF86CE043F82720164BD5
:104E500016460A6943F827204B7F0EF807300C46A8
:104E600084460FCC89B06D460FC594E80F0085E8E5
:104E70000F001EF80730049753B1002E0B4A694605
:104E800008BF32460CF1040000F05CFC09B0F0BD34
:104E9000002E074A694608BF32460CF10C0000F0AC
:104EA00099F9F3E7F0080020E8080020D94D000048
:104EB0000D4E0000F8080020044A137923B901219F
:104EC000106091801846704785207047FC080020CC
:104ED000074B1A68D2075FBFC02283F80023012264
:104EE0001A604FF080430122C3F81825704700BFB5
:104EF00000E100E0074B00221A6082B01B680193BA
:104F0000019B4FF080430222C3F8042301229A60E0
:104F100002B0704704010040154B07B51A687AB11A
:104F200000221A601B680093009B4FF0804301220F
:104F3000C3F808230F4B587910B95A711B6898476A
:104F40000D4B1A6882B100221A601B680193019B05
:104F50004FF080430222C3F80823064B1B68012050
:104F600003B05DF804EB184703B05DF804FB00BF25
:104F700000010040FC08002004010040014B1B68B8
:104F8000184700BF0409002038B50B4B98420D4666
:104F900001D0002038BD0020FCF7CEFC074B1C7967
:104FA00014B901221D601A710020FCF7C7FC002C07
:104FB000EFD01120EEE700BF0020004004090020E0
:104FC000034B984201BF034B00221A601A717047CD
:104FD00000200040040900200023435082B04358C1
:104FE0000193019B02B070470A4610B54FF48E71D1
:104FF000FFF7F2FF136A9168C95C136A0133136209
:10500000C0F81C1510BD024608B54FF49271006837
:10501000FFF7E2FF4FF484711068FFF7DDFF1368BC
:1050200001221A6008BD8B690A4610B54FF48471DD
:1050300023B9FFF7D1FFD0F8183510BDFFF7CCFF2B
:10504000536AD168D0F81805C854536A01335362C3
:10505000F3E700001FB501238DF80030044BCDE9C4
:105060000110D3E900126846904705B05DF804FBD3
:105070000C09002030B54D4AD2F8043313F4007FF8
:1050800085B015464FD0D2F82431002B4BD04FF4C9
:1050900092711046FFF7A0FF4FF40173C2F8083376
:1050A000434B93F8291009B9012151603F4902226D
:1050B0008DF80020D1F88024C1F8802403929A69E9
:1050C0000292DA6801920022C3E906226846D3E917
:1050D000001290473548D0F81C315BB134494A6919
:1050E0000B6A9A420A464BD991F82830002B47D1D7
:1050F000FFF77AFF2D4AD2F8443193B14FF4A271F1
:105100001046FFF769FF2A4B93F8291009B10121D6
:1051100011609A692AB100229A61586AD968FFF72A
:1051200099FF05B030BDD5F804335B07D2D5D5F86B
:105130000831002BCED01E4C1C482146FFF773FFD0
:10514000636AA2699A422346C4D1E269E1684AB11E
:105150002369E3600023606AA261E3616362FFF791
:1051600079FFB7E794F829200AB901226A600F4A4B
:105170004FF40170C2F8080300229A61586AEEE702
:105180004FF48E710948FFF727FF5369002BB1D008
:1051900051690291002391688DF8003001915361AB
:1051A0006846D2E900139847A4E700BF00200040FA
:1051B0000C0900201F2886BF00F01F00044B4FF091
:1051C000A04300F5E070022243F82020704700BFA2
:1051D000000300502DE9F843624F047991462C22D8
:1051E00002FB0472064692F82A200D46002A40F07F
:1051F000B3805D490068FFF7C7FE8046002840F095
:10520000AE8029684A1C10D01F2987BF01F01F03F8
:10521000564A0B464FF0A0420120984003F5E07338
:10522000C2F80805032042F823006868431C0DD02B
:105230001F288BBF00F01F0303464C4A4FF0A042CB
:1052400003F5E0734FF0000C42F823C03368AA69FD
:1052500095F814C0C3F824256A7DBCF1010F4CEA0F
:105260000202C3F86C25C3F81405C3F80C152BD142
:10527000A968481C0DD01F298BBF01F01F020A46E8
:105280003A484FF0A04002F5E0724FF0000C40F8B1
:1052900022C0E868421C13D01F2887BF00F01F0CF3
:1052A000324A84464FF0A0424FF0010E0EFA0CFE37
:1052B0000CF5E07CC2F808E54FF0030E42F82CE054
:1052C000C3F80805C3F810152C236343FA18C2F875
:1052D00004902A69FA50B9F1000F2AD04FF48E7168
:1052E00030682D7FFFF778FE30684FF4A271FFF72A
:1052F00073FE32681E4BC2F80433120B51B2002900
:10530000A8BF01F160404FEA4513BABF194802F047
:105310000F0500F56140DBB2B4BF435580F80033A0
:1053200002F01F02012303FA02F24909124B43F86B
:10533000212033680422C3F800252C2303FB0473C7
:105340000022C3E9062283F829205A61012283F84A
:105350002A204046BDE8F8834FF00808F9E74FF0EF
:105360001108F6E70C0900207550000000030050FA
:105370008000020014ED00E000E100E02DE9F041C2
:1053800003680479254D0022C3F800252C2202FB76
:1053900004520646526872B1214AC3F80823190B19
:1053A0004AB20120520901F01F0100FA01F1203236
:1053B0001C4840F82210D3F80C05D3F81485D3F814
:1053C0000815D3F810754FF0FF329042C3F814253A
:1053D000C3F80C25C3F80825C3F8102501D0FFF742
:1053E000E9FEB8F1FF3F02D04046FFF7E3FE7A1C2A
:1053F00002D03846FFF7DEFE4B1C02D00846FFF70E
:10540000D9FE3068FFF7DCFD2C2303FB0454002396
:1054100084F82A306360BDE8F08100BF0C090020E9
:105420008402020000E100E02DE9F84F224F0679E6
:105430004FF02C0909FB067480466569002D38D1B0
:105440006261A16025624FF48E71006884F8285073
:10545000FFF7C2FDD8F80000012383602146FFF763
:10546000C3FD6368A1469BB9D8F800A0D4F814B076
:10547000236A9B4512D8D8F80020D2F81C31002BA3
:10548000FBD00123D3602C2303FB067300225A6157
:105490002846BDE8F88F94F8283043B9DAF81C3173
:1054A000002BF8D049465046FFF79EFDE0E70F2558
:1054B000E9E71125ECE700BF0C0900200379044A55
:1054C0002C2101FB03235869003018BF01207047CD
:1054D0000C0900202DE9F843394E05792C2303FBF4
:1054E000056307465C6824B103684FF40170C3F894
:1054F00008032C2303FB0563986950B1D869002881
:105500003ED024B13B684FF40172C3F80423112448
:1055100033E09A61D9605862D8612C2303FB05639C
:1055200093F829301BB910B93846FFF76CFD4FF0DE
:105530002C0909FB05683868D8F80430002B34D1F1
:105540004FF4A271FFF748FDC1463868D0F8243106
:10555000D0F80821D0F84441B2B90CB9002BF4D0EE
:105560002C2202FB05650022AA6123BB2CBB95F807
:1055700029103B680122B1B11A602046BDE8F883CA
:105580001961DA610120C8E7002BE9D1002CE7D1CD
:105590004946FFF748FDD8F82430D8F818209A4239
:1055A000D3D82346DCE75A60E7E74FF40173C0F82D
:1055B00004330024E1E70324DFE70F24DDE700BF25
:1055C0000C09002003684FF40172C3F8082301227C
:1055D0005A6070470023435082B043580193019BA7
:1055E00002B070471FB501238DF80030044BCDE9A0
:1055F0000110D3E900126846904705B05DF804FB3E
:10560000380900201F2886BF00F01F00044B4FF010
:10561000A04300F5E070022243F82020704700BF4D
:10562000000300507FB5454AD2F82461002E63D0B4
:1056300010464FF49271FFF7CDFF02238DF8003032
:10564000D2F88034C2F880340393D2F83C35029308
:105650003B4BDA6801920022C3E906226846D3E98F
:1056600000129047354AD2F844317BB14FF4A27111
:105670001046FFF7AFFF324B996939B10021C3E9FA
:105680000611D968D2F83C05FFF7ACFF2B4AD2F8D7
:105690002031B3B14FF490711046FFF79BFF012307
:1056A000D360274B596961B1D2F84C1502910022A1
:1056B00099688DF8002001915A616846D3E900127B
:1056C00090471E4AD2F85831A3B14FF4AC7110463E
:1056D000FFF780FF1A4B596961B1D2F84C1502915E
:1056E000002299688DF8002001915A616846D3E93B
:1056F0000012904704B070BDD2F81031002BB1D029
:105700004FF488711046FFF765FF0D4BD2F83C054A
:1057100099698842A6D1DC69D96864B1D2F800528F
:1057200025F02005C2F800521A699C61DA60DE613A
:10573000FFF758FF96E79C61FAE700BF00200040A2
:10574000380900202DE9F843694F06799146242253
:1057500002FB0672044692F820200D46002A40F013
:10576000C08064490068FFF70FFC8046002840F0C5
:10577000BB802868421C10D01F2887BF00F01F0381
:105780005D4A03464FF0A0420121994003F5E073C2
:10579000C2F80815032142F8231069684B1C0DD08C
:1057A0001F298BBF01F01F030B46534A4FF0A04245
:1057B00003F5E0734FF0000C42F823C02368AA6998
:1057C00095F814C0C3F824256A7DBCF1010F4CEA9A
:1057D0000202C3F86C25C3F80C05C3F814152BD1CD
:1057E000A968481C0DD01F298BBF01F01F020A4673
:1057F00041484FF0A04002F5E0724FF0000C40F835
:1058000022C0E868421C13D01F2887BF00F01F0C7D
:10581000394A84464FF0A0424FF0010E0EFA0CFEBA
:105820000CF5E07CC2F808E54FF0030E42F82CE0DE
:10583000C3F80805C3F8101524237343FA18C2F8F7
:1058400004902A69FA50B9F1000F39D04FF48871E9
:1058500020682D7FFFF7BEFE4FF490712068FFF7A0
:10586000B9FE4FF492712068FFF7B4FE4FF4A271B5
:105870002068FFF7AFFE20684FF4AC71FFF7AAFE77
:1058800022681E4BC2F80433120B51B20029A8BF84
:1058900001F160404FEA4513BABF194802F00F0505
:1058A00000F56140DBB2B4BF435580F8003302F02D
:1058B0001F02012303FA02F24909124B43F8212087
:1058C00023680822C3F80025242303FB0673002263
:1058D000C3E906225A61012283F820204046BDE830
:1058E000F8834FF00808F9E74FF01108F6E700BF1A
:1058F0003809002025560000000300501003420024
:1059000014ED00E000E100E02DE9F0412F4D0479B5
:10591000242303FB045306465B68006873B12C4BD9
:10592000C0F80833020B53B201215B0902F01F02D9
:1059300001FA02F22033274941F82320D0F800323F
:10594000012223F02003C0F800324FF4AC71426012
:10595000FFF740FE3368DA60D3F85821002AFBD005
:105960000022C3F80025D3F80C05D3F81485D3F82A
:105970000815D3F810754FF0FF329042C3F80C258C
:10598000C3F81425C3F80825C3F8102501D0FFF784
:1059900039FEB8F1FF3F02D04046FFF733FE7A1CD4
:1059A00002D03846FFF72EFE4B1C02D00846FFF708
:1059B00029FE3068FFF704FB242303FB0454002373
:1059C00084F820306360BDE8F08100BF3809002012
:1059D0001003420000E100E001F06043B3F1005F1A
:1059E0002DE9F041074638D11E4B0679242505FBE9
:1059F000063598466C69002C31D16A61A96000684F
:105A00004FF49071FFF7E6FD4FF4AC713868FFF783
:105A1000E1FD3B686A69A968C3F84415C3F84825E5
:105A200001229A606A68AAB9D3F82021D3F85841B4
:105A30001AB9002CF8D00F2407E0002CFBD101226A
:105A4000DA60D3F85821002AFBD0242303FB068612
:105A5000002373612046BDE8F0811024FAE7112489
:105A6000F8E700BF380900200379044A242101FB2C
:105A700003235869003018BF0120704738090020FF
:105A8000F8B501F06043B3F1005F04460F465ED104
:105A90000379304D242101FB0351486820B121686E
:105AA0004FF40476C1F80863242101FB03539E6977
:105AB00056B1D969002939D020B123684FF4047256
:105AC000C3F80423112030E09A61DF60DE614FF4F7
:105AD00088712068FFF77EFD4FF4A2712068FFF700
